:10000000401C0020AD280000A9280000A9280000FD
:10001000A9280000A9280000A9280000000000006D
:10002000000000000000000000000000A9280000FF
:10003000A928000000000000A92800008106000097
:10004000A9280000A9280000A9280000A92800006C
:10005000A9280000A9280000A9280000A92800005C
:10006000A9280000A9280000A9280000A92800004C
:10007000A9280000A9280000A9280000A92800003C
:10008000A9280000A9280000A9280000A92800002C
:10009000A9280000A9280000A9280000A92800001C
:1000A000A928000039150000491500005D15000061
:1000B000711500008515000095150000A9150000B8
:1000C000BD150000D1150000E1150000F515000078
:1000D00009160000A9280000A9280000A92800008E
:1000E000A9280000A9280000A9280000A9280000CC
:1000F000A9280000A9280000A9280000A9280000BC
:10010000A9280000A9280000A9280000A9280000AB
:10011000A9280000A9280000A9280000A92800009B
:10012000A9280000A9280000A9280000F113000058
:1001300005140000A9280000A9280000A928000033
:10014000A9280000A9280000A9280000A92800006B
:10015000A9280000A9280000A9280000A92800005B
:10016000A9280000A9280000A9280000A92800004B
:10017000A9280000A9280000A9280000A92800003B
:1001800008B50548054B1B1A062B00D808BD044BC3
:10019000002BFBD09847F9E70C5900000F590000DD
:1001A0000000000008B50748074B1B1A9B1003EB23
:1001B000D373591000D108BD044A002AFBD09047E0
:1001C000F9E700BF0C5900000C59000000000000C6
:1001D00010B5064C237843B9FFF7D2FF044B13B197
:1001E0000448AFF300800123237010BD00090020F4
:1001F000000000000C59000008B5084B1BB108486E
:100200000849AFF300800848036813B1074B03B1F6
:100210009847BDE80840FFF7C5BF00BF00000000D9
:100220000C590000040900200C59000000000000D7
:100230002DE9F843C36923F0030343F00C03EFF304
:10024000108672B6BFF35F8F00250F4C25700F4CE0
:10025000D4F808802768D4F80490626005222260F0
:1002600001F0030119430A4B98472560C4F8049034
:10027000C4F8088027602EB90122034B1A70BFF31F
:100280005F8F62B6BDE8F8833800002010E000E020
:100290000100002040697047054B1B6E13F4806F0E
:1002A000044B1A680CBF013202F1FF321A6070472A
:1002B00000120E4024090020054B1B6E13F4003F72
:1002C000044B1A680CBF013202F1FF321A6070470A
:1002D00000140E4030090020054B1B6E13F0080F70
:1002E000044B1A680CBF02F1FF3201321A607047EA
:1002F00000120E40B8090020054B1B6E13F0100FC2
:10030000044B1A680CBF02F1FF3201321A607047C9
:1003100000120E4020090020054B1B6E13F4802FA5
:10032000044B1A680CBF02F1FF3201321A607047A9
:1003300000140E402C090020054B1B6E13F0800F9B
:10034000044B1A680CBF02F1FF3201321A60704789
:1003500000100E40B4090020054B1B6E13F0040F73
:10036000044B1A680CBF013202F1FF321A60704769
:1003700000120E401C090020054B1B6E13F4807FF9
:10038000044B1A680CBF013202F1FF321A60704749
:1003900000140E402809002010B4214900010A5819
:1003A000530903F5001303F5E1635B0202F01F023A
:1003B000012404FA02F29A64C3F864210A5853092A
:1003C00003F5001303F5E1635B0202F01F0204FA78
:1003D00002F29A650B5803F01F0204FA02F25B095D
:1003E00003F5001303F5E1635B029A67C3F8842009
:1003F000C3F8C420C3F808219A619A629A630B5823
:1004000003F01F0294405B0903F5001303F5E16359
:100410005B02C3F8A440C3F8B8405DF8044B7047D2
:100420003409002038B50546094A0301D118D058CF
:10043000C9680122074B984740B90748074CA047B5
:100440002846074B98470748A047FEE738BD00BF3E
:100450003409002089140000A8570000B92F0000BB
:10046000110D0000BC570000134B03EB0010416856
:100470004B0903F5001303F5E1635B0201F01F0173
:10048000012202FA01F19964C3F86411436803F090
:100490001F018A405B0903F5001303F5E1635B026A
:1004A0009A67C3F88420C3F8C420C3F808219A616E
:1004B0009A629A63704700BF340900200001084B1C
:1004C0001A5853095B0203F1804303F5612302F0DC
:1004D0001F02012101FA02F2C3F89420704700BF05
:1004E000340900200001084B1A5853095B0203F13C
:1004F000804303F5612302F01F02012101FA02F299
:10050000C3F89820704700BF3409002010B40023BE
:100510000A4C012019594A09520202F1804202F59F
:10052000612201F01F0100FA01F1C2F894101033AA
:10053000802BEFD15DF8044B704700BF34090020D9
:1005400038B52F4B036010221A602A225A602D4AB8
:100550009A602D4ADA6011221A6151225A612B4A9F
:100560009A612B4ADA6112221A6223225A62294ABC
:100570009A62294ADA6213221A6324225A63274AAA
:100580009A63274ADA6314221A6452225A64254A6B
:100590009A64254ADA6444221A6507225A65234A76
:1005A0009A65234ADA6545221A6622225A66214A4A
:1005B0009A66214ADA6646221A6748225A671F4A13
:1005C0009A671F4ADA6700241E4D2046A847013467
:1005D000082CFAD100241C4D2046A8470134082CD1
:1005E000FAD10024194D2046A8470134082CFAD12D
:1005F0000024174D2046A8470134082CFAD138BDF5
:10060000340900202409002099020000300900204C
:10061000B9020000B8090020D9020000200900201A
:10062000F90200002C09002019030000B409002081
:10063000390300001C09002059030000280900208C
:1006400079030000990300006904000025040000FC
:10065000E5040000074B0360074B41F63A725A600D
:10066000F021064A82F8231000229A6007221A60BD
:10067000704700BFBC09002010E000E000ED00E082
:10068000024B1A6801321A60704700BFBC09002093
:10069000F0B4144B1B6803EB00139B681D68124AEF
:1006A00044002118C9005318002DB8BF6D425D6089
:1006B0000E4D2D682D68DD605F685658BE1B4FF4E7
:1006C0007A7707FB06F79E68AD1B97FBF5F61E6170
:1006D0005D685550DB68204402EBC0029360F0BCBB
:1006E000704700BF280C0020C00900202C0C0020FF
:1006F00010B40B4C046009680A4B196012680A4B6D
:100700001A60234604F1C000002208491A609A606A
:100710001A61596118338342F8D15DF8044B704770
:10072000C0090020280C00202C0C0020910600009D
:1007300070B50C46152800F2AF82DFE810F0160005
:10074000340052007E00B400DC00FA001E014201B9
:10075000610175018A019F01B401C901DD01F10147
:1007600027025D02720287029A02062000219F4D35
:10077000A84707200021A84700209D4EB04703202E
:10078000B04706209B4EB0470120B04700209A4E4C
:10079000B0470120B04700202146A847012021464C
:1007A000A847012070BD00200146904DA8470120B8
:1007B0000021A84706208E4EB0470120B0470620F2
:1007C0008C4EB0470120B04700208C4EB04701202E
:1007D000B04700202146A84701202146A847022013
:1007E00070BD00200146814DA84701200021A84787
:1007F00006207F4EB0470120B04707207D4EB0470E
:100800000420B0470520B0470220B04702207A4EAE
:10081000B0470320B0470420B0470520B04702206E
:100820002146A84703202146A84704202146A8477F
:1008300005202146A847032070BD022000216B4DF2
:10084000A84703200021A84704200021A84705202D
:100850000021A8470720664EB0470420B047052076
:10086000B0470220B0470720624EB0470420B0478F
:100870000520B0470220B0470220604EB047032059
:10088000B0470420B0470520B04702202146A847C2
:1008900003202146A84704202146A84705202146D9
:1008A000A847042070BD02200021504DA847032016
:1008B0000021A84704200021A84705200021A847BF
:1008C00007204B4EB0470420B0470520B047022018
:1008D000B0470020474EB0470320B0470620464EA1
:1008E000B0470720B04706202146A84707202146E9
:1008F000A847052070BD062000213C4DA8470720D1
:100900000021A84700203A4EB0470320B0470020FE
:10091000384EB0470320B0470620384EB047072076
:10092000B04706202146A84707202146A8470020B7
:1009300070BD022000212D4DA84703200021A847AB
:1009400004200021A84705200021A84702202A4EA4
:10095000B0470320B0470420B0470520B04702202D
:100960002146A84703202146A84704202146A8473E
:1009700005202146A847072070BD022000211B4DFD
:10098000A84703200021A84704200021A8470520EC
:100990000021A8470220194EB0470320B047042089
:1009A000B0470520B04702202146A8470320214632
:1009B000A84704202146A84705202146A84706202D
:1009C00070BD06200021094DA84707200021A84737
:1009D0000620094EB0470720B04706202146A84709
:1009E00007202146A847092070BD00BF952B0000B5
:1009F000E5040000BD040000452B00006D2B000045
:100A000006200021A54DA84707200021A847062061
:100A1000A34EB0470720B04706202146A84707202D
:100A20002146A847082070BD002001469B4DA847DD
:100A300001200021A84700209A4EB0470120B0476E
:100A40000020A4F1C801A84701202146A8470B2097
:100A500070BD00200146914DA84701200021A84704
:100A600000208F4EB0470120B0470020A4F1C801FC
:100A7000A84701202146A8470A2070BD0220002176
:100A8000864DA84703200021A8470220854EB04785
:100A90000320B0470220A4F16401A84703202146A7
:100AA000A8470D2070BD022000217C4DA8470320DF
:100AB0000021A84702207A4EB0470320B047022009
:100AC000A4F16401A84703202146A8470C2070BD6B
:100AD00004200021714DA84705200021A8470420CB
:100AE000704EB0470520B04704202146A847052096
:100AF0002146A8470F2070BD04200021674DA8475C
:100B000005200021A8470420654EB0470520B047C6
:100B100004202146A84705202146A8470E2070BD85
:100B2000002001465D4DA84701200021A847022072
:100B30000021A84703200021A84706200021A8473C
:100B400007200021A8470020564EB0470120B0479B
:100B50000220B0470320B0470620B0470720B04727
:100B6000A4F1640600203146A84701202146A84789
:100B700002203146A84703202146A84706202146E7
:100B8000A84707202146A847112070BD0020014634
:100B9000424DA84701200021A84702200021A84774
:100BA00003200021A84706200021A8470720002194
:100BB000A84700203A4EB0470120B0470220B04776
:100BC0000320B0470620B0470720B0470020214649
:100BD000A84701202146A847A4F164060220314617
:100BE000A84703202146A84706203146A8470720EA
:100BF0002146A847102070BD07200021274DA84797
:100C000004200021A8470720264EB0470420B04703
:100C10000720A4F16401A84704202146A847132017
:100C200070BD072000211D4DA84704200021A847C2
:100C300007201B4EB0470420B0470720A4F16401F1
:100C4000A84704202146A847122070BD0620164D53
:100C5000A8470120A8470620124DA8470120A84711
:100C6000062021460D4DA84701202146A847152002
:100C700070BD06200C4DA8470120A8470620084D4E
:100C8000A8470120A84706202146044DA847012077
:100C90002146A847142070BD642070BD952B00002C
:100CA0006D2B0000452B0000092C0000F0B480EAF9
:100CB000E072A2EBE0720024144F651C87FB023641
:100CC000D317C3EBA60303EB8306A2EB4602303235
:100CD0000A551A46002B01DD2C46EEE72B4600286C
:100CE00002DAA51C2D22CA5400234B556B1E002B83
:100CF00009DD00200A5CCC5C0C54CA540130013B75
:100D00009842F7DB00E00020F0BC7047676666663B
:100D100000B585B001A9044B984701A8034B98473B
:100D200005B05DF804FB00BFAD0C0000B92F00005A
:100D300010B50446104B984780232360636843F046
:100D400001036360636843F010036360636823F02A
:100D50008003636020460021084B9847636823F0B6
:100D600002036360636823F004036360204600218C
:100D7000034B984710BD00BFE10E0000ED0E0000D0
:100D8000050F0000F8B505460C46164618464FF00C
:100D90003771134B984707462846216800221346AF
:100DA000DFF854C0E0472846216808220D4B9847D9
:100DB00028462168FAB20C4B984728462168082239
:100DC0000A4B9847284621687208094B984786F0D5
:100DD00001022846216802F00102064B9847F8BD3F
:100DE000B10F00009D0F0000C90F0000590F000057
:100DF000190F0000390F0000E10F000008B543682B
:100E000013F0040F05D009680F290BD8064B98473B
:100E100008BD0B68032B05D8012202FA03F1C94370
:100E2000014B984708BD00BFED0E000010B5044609
:100E3000236913F4007FFBD020460F21024B984713
:100E40004FF08073236010BDED0E00002DE9F041DE
:100E50000C46904660B9002A0EDD8F18094E0A4DE7
:100E6000306821462B6898470134BC42F8D106E02F
:100E70004FF0FF30BDE8F0810020BDE8F081404632
:100E8000BDE8F081380C0020300C00202DE9F04145
:100E90000E461546013802280FD892B10024DFF81B
:100EA0003C800D4FD8F80000315D3B689847002822
:100EB0000ADB0134A542F5D10AE04FF0FF30BDE86E
:100EC000F0810020BDE8F0814FF0FF30BDE8F081F7
:100ED0002046BDE8F08100BF340C0020380C002013
:100EE00008B5014B984708BDD11C0000436823F4A6
:100EF000702343604368090401F470210B4343608D
:100F0000704700BF436823F07F434360436843EA70
:100F100001614160704700BF32B100EB8100036B9B
:100F200043F001030363704700EB8100036B23F080
:100F300001030363704700BF32B100EB8100036B14
:100F400043F002030363704700EB8100036B23F05F
:100F500002030363704700BF042A0AD100EB81003B
:100F6000036B23F008030363036B43F00403036381
:100F7000704752B900EB8100036B23F00803036351
:100F8000036B23F0040303637047082A05D100EBC9
:100F90008100036B43F008030363704700EB81019A
:100FA0000B6B23F0F0030B630B6B1A430A63704760
:100FB000431E1944B1FBF0F0431EFE2B94BF80B2D8
:100FC0004FF6FF7000B2704700EB81010B6B23F40A
:100FD0007F430B630B6B43EA02220A63704700BF37
:100FE00000EB8101086B80B20863086B40EA036381
:100FF00043EA02420A63704710B40B0193420DD9D1
:101000001AE0416841F40021416042EA034303626F
:10101000002020E001201EE001201CE0D20002EBB5
:101020005302B2FBF3F3DA0803F00703541E4FF642
:10103000FE718C42E9D9EDE7C900D30003EB5103FF
:10104000B3FBF1F3DA0803F00703541E4FF6FE7109
:101050008C42D6D9E0E75DF8044B70470A4BC0F8E4
:10106000E4300023436043628362882303602423C7
:1010700003604FF4807303604FF4002303604FF468
:1010800000330360704700BF0041535570B50546FB
:101090000C4616460F4B984700210F4B19609CB128
:1010A0002846216832460D4B9847034670B9A1681F
:1010B00062680A4321690A43E068024306490A60FC
:1010C00069680A436A6002E0012300E001231846D0
:1010D00070BD00BF5D100000800A0020F90F000005
:1010E00040230360704700BF10230360704700BFB8
:1010F000436913F0020F04D0C1F30801C16100205D
:1011000070470120704700BF436913F0010F05D0FD
:101110008369C3F308030B60002070470120704708
:1011200070B582B0064602AC002344F8043D094D78
:1011300028462146084B98474FF48052074B9A6542
:10114000EE602320064B984728462146054B9847DA
:1011500002B070BD00800040FD0D000000120E4086
:101160002D0000202D0E00002DE9F04F83B0244B00
:101170004FF480525A64C3F868214FF400525A6405
:10118000C3F868211F4B98474FF0000BDFF88480AD
:10119000DFF884A0DFF8689047460BF0070040F0C6
:1011A000B000194B98471020174B98470020164B5A
:1011B00098478025002602AC44F8046D3846214645
:1011C000D0474FF48053C9F85430C8F80C6023203E
:1011D0000E4B9847384621460D4B9847013DE9D1C3
:1011E0000BF1010BBBF1040FD7D1B020064CA04787
:1011F0001020A0473046A04703B0BDE8F08F00BFE5
:1012000000120E40A9160000211100002D00002040
:101210002D0E000000800040FD0D000070B504465A
:101220000D46104A104B98472046104B9847104BDC
:10123000A3FB0026360A2046294632460D4B984726
:10124000642303FB06F60C4BA3FB06267609204617
:1012500029463246094B9847204629463246084BD4
:10126000984770BD02C409091D1600000D1B00003F
:10127000D34D6210591600001F85EB51491600002E
:101280005116000070B5494C2046494EB047494DB3
:101290002846B047484B4FF480729A67C3F88820BD
:1012A000C3F8C820C3F808215A619A629A639A6009
:1012B0004FF400729A67C3F88820C3F8C820C3F8B7
:1012C00008215A619A629A639A604FF480629A6721
:1012D000C3F88820C3F8C820C3F808215A619A626D
:1012E0009A639A604FF400629A67C3F88820C3F843
:1012F000C820C3F808215A619A629A639A604FF431
:1013000080529A67C3F88820C3F8C820C3F8082120
:101310005A619A629A639A604FF400529A67C3F8CE
:101320008820C3F8C820C3F808215A619A629A63DA
:101330009A6003F580634FF400429A67C3F88820EF
:10134000C3F8C820C3F808219A619A629A639A6028
:101350004FF480329A67C3F88820C3F8C820C3F8D6
:1013600008219A619A629A639A6020460021134E7E
:10137000B04720460121B04720460221B047284609
:101380000021B047204600210D4EB04720460121E4
:10139000B04720460221B04728460021B0472046EA
:1013A0000021084B9847084B186070BD00000140B1
:1013B000D11C00000040014000100E401D12000032
:1013C0003916000041160000840A002008B5014BC0
:1013D000984708BD4916000008B5014B984708BD5D
:1013E00051160000014B1868704700BF840A0020A6
:1013F00008B50248024B984708BD00BF745800006A
:101400007530000008B50248024B984708BD00BF80
:101410007C580000753000002DE9F04F83B007467E
:1014200001914FEA402909F1804909F56129D9F86C
:10143000D0A0134B1B68DBB100242546114E4FF0A2
:10144000010BDFF83C80A359B7EB531F0AD103F01F
:101450001F030BFA03F313EA0A0F03D033195B6877
:1014600003B1984701350834D8F80030AB42EAD8C8
:10147000019A02EA0A03C9F8D83003B0BDE8F08F38
:10148000880A00208C0A002030B4284B1B68072BE8
:1014900049D800F01F04012505FA04F414F0FF0FE9
:1014A00010D114F47F4F09D114F47F0F08D104F048
:1014B0007F44002C0CBF0425032504E0012502E035
:1014C000022500E00025440905EB84041934E4B248
:1014D000174D45F8330005EBC303596061B204F0C2
:1014E0001F03012098404B099B0003F1604303F563
:1014F0006143C3F88001002906DA04F00F041201E9
:10150000D2B20C490A5507E01201D2B201F1604192
:1015100001F5614181F800231860044B1A6801321B
:101520001A60012000E0002030BC7047880A0020CB
:101530008C0A002014ED00E008B50020FF21014BCB
:10154000984708BD1914000008B500204FF47F41EA
:10155000014B984708BD00BF1914000008B50020D2
:101560004FF47F01014B984708BD00BF19140000DC
:1015700008B500204FF07F41014B984708BD00BFE0
:101580001914000008B50120FF21014B984708BD40
:101590001914000008B501204FF47F41014B984712
:1015A00008BD00BF1914000008B501204FF47F01E9
:1015B000014B984708BD00BF1914000008B5012071
:1015C0004FF07F41014B984708BD00BF1914000040
:1015D00008B50220FF21014B984708BD19140000EF
:1015E00008B502204FF47F41014B984708BD00BF6A
:1015F0001914000008B502204FF47F01014B9847F1
:1016000008BD00BF1914000008B502204FF07F414B
:10161000014B984708BD00BF1914000010B48901A0
:101620004318022444504FF0FF319962196A5A60FE
:101630005DF8044B704700BF890105234350704794
:1016400000EB8111C869704700EB81114A61704756
:1016500000EB81118A61704700EB8111CA6170470C
:1016600070B582B0064602AC002344F8043D094D33
:1016700028462146084B98474FF48052074B9A65FD
:10168000EE602320064B984728462146054B984795
:1016900002B070BD00800040FD0D000000120E4041
:1016A0002D0000202D0E000070B584B0244D4FF4A5
:1016B0000056AE652320234CA0476E652320A0472B
:1016C000002504AE46F8045D1F4C20461F4B98478A
:1016D0000095204631462A461D4B1E4EB047012339
:1016E0002360A8201C4CA0471F20A047D320A04760
:1016F0002846A0474020A047A120A047C820A047D7
:10170000DA20A0470220A0478120A0478F20A047D1
:10171000A420A047A620A047D520A0478020A0470E
:101720008D20A0471420A047DB20A0474020A047E1
:10173000D920A047F120A047AF20A04704B070BD3A
:1017400000120E402D00002000800040310D0000EE
:10175000001BB700850D000061160000036843F010
:1017600001033E4A5367EFF3108272B6BFF35F8FF7
:1017700000213B4B1970394B3A499961012199621B
:1017800022B9374B1970BFF35F8F62B6334A536982
:1017900013F0080FFBD0EFF3108172B6BFF35F8F29
:1017A00000222F4B1A702D4B2F4A9A61C2685A6340
:1017B00029B901222A4B1A70BFF35F8F62B6274AFC
:1017C000536913F0080FFBD0EFF3108172B6BFF32B
:1017D0005F8F0022224B1A70204B244A9A61826844
:1017E0001A6329B901221E4B1A70BFF35F8F62B6CC
:1017F0001A4A536913F0080FFBD0EFF3108172B649
:10180000BFF35F8F0022164B1A70144B184A9A616F
:1018100002699A6329B90122114B1A70BFF35F8FD5
:1018200062B60E4A536913F0080FFBD0EFF3108233
:1018300072B6BFF35F8F0021094B1970074B09493E
:101840009961416841F0010199622AB90122044B72
:101850001A70BFF35F8F62B6704700BF00080E407A
:1018600038000020280000AA340000AA300000AA96
:10187000380000AA00B589B0224B9B6A13F0020F12
:1018800009D0204B9B6A13F0010F04D01D4B5B69FC
:1018900013F0040F33D1002831D11B4B5B6913F0D7
:1018A000010F06D1194B9847174A536913F0010FDE
:1018B000FBD04FF4807301930122124B1A641A4635
:1018C000536913F0080FFBD00E4B9B6A02228DF870
:1018D0001C2023F4403343F0021302934FF4B76308
:1018E0000393002106914FF004130493059101A87E
:1018F000074B9847034A536913F0040FFBD009B014
:101900005DF804FB00080E4000040F4015190000AC
:101910005D170000EFF3108272B6BFF35F8F0021F6
:10192000074B1970074B08499961084919622AB990
:101930000122034B1A70BFF35F8F62B6704700BF7E
:101940003800002000040F40200000AA0DA105006F
:1019500070B4EFF3108272B6BFF35F8F00240D4BAB
:101960001C7085000C4B53F82040012606FA01F14B
:101970002143203505F47F7545F02A45074CA565C0
:1019800043F8201022B9034B1E70BFF35F8F62B67D
:1019900070BC70473800002020000E4000000E4050
:1019A00070B4EFF3108272B6BFF35F8F00240E4B5A
:1019B0001C7085000D4B53F82040012606FA01F1FA
:1019C00024EA0101203505F47F7545F02A45084CCD
:1019D000A56543F8201022B9034B1E70BFF35F8F3B
:1019E00062B670BC704700BF3800002020000E4077
:1019F00000000E4038B50446EFF3108572B6BFF311
:101A00005F8F00220A4B1A700A4B9B6A1BB9012098
:101A10000521094B98472DB90122054B1A70BFF3D8
:101A20005F8F62B602202146034B984738BD00BF46
:101A30003800002000000E405119000010B501468A
:101A400002200C4B9847EFF3108472B6BFF35F8F00
:101A50000022094B1A70094B9B6A1BB90120052112
:101A6000044B98472CB90122034B1A70BFF35F8FC8
:101A700062B610BDA11900003800002000000E4021
:101A800038B50446EFF3108572B6BFF35F8F0022BE
:101A90000A4B1A700A4BDB6A1BB901200621094B5D
:101AA00098472DB90122054B1A70BFF35F8F62B6BC
:101AB00003202146034B984738BD00BF3800002063
:101AC00000000E405119000010B5014603200C4BD8
:101AD0009847EFF3108472B6BFF35F8F0022094B73
:101AE0001A70094BDB6A1BB901200621044B984789
:101AF0002CB90122034B1A70BFF35F8F62B610BD81
:101B0000A11900003800002000000E40604B9842F0
:101B100000F0B88060D8A3F5A023984200F0B2800E
:101B20002FD8A3F58033984200F0AC8014D8A3F5E9
:101B30008033984200F0A68004D8B0F1402F40F0E6
:101B4000A4809FE0534B984200F09C8003F58043B3
:101B5000984240F09A8095E04F4B984200F0928076
:101B600005D8A3F57053984240F08F808AE04B4B24
:101B7000984200F0878003F5F843984240F0858052
:101B800080E0474B98427DD011D8A3F5803398422E
:101B900078D004D8A3F58043984276D172E0414BC7
:101BA00098426FD003F5804398426ED16AE03E4B75
:101BB000984267D008D8A3F50043984262D003F555
:101BC0008043984261D15DE0384B98425AD003F58A
:101BD0008043984259D155E0354B984252D027D88E
:101BE000A3F57C3398424DD011D8A3F50433984225
:101BF00048D004D8A3F58043984246D142E02D4B0B
:101C000098423FD003F5806398423ED13AE02A4B98
:101C1000984237D004D8A3F50053984235D131E02B
:101C2000264B98422ED003F5805398422DD129E0BF
:101C3000234B984226D011D8A3F57843984221D05F
:101C400004D8A3F5806398421FD11BE01D4B984236
:101C500018D003F58063984217D113E01A4B9842CD
:101C600010D008D8A3F5006398420BD003F5806329
:101C700098420AD106E0154B984203D003F58063E1
:101C8000984202D14FF0377070470020704700BF74
:101C9000008007400000014000C0014000C4014036
:101CA00000000440008003400080064000C0064061
:101CB00000000E4000000A4000400A4000500A4068
:101CC00000000F40000C0E40000C0F4000100F40B1
:101CD00008B5B34B984200F05A816AD8A3F5A02307
:101CE000984200F013812FD8A3F58033984200F07A
:101CF000F28014D8A3F58033984200F0D28004D843
:101D0000B0F1402F00F0C98008BDA64B984200F00A
:101D1000CC8003F58043984200F0D28008BDA24BEE
:101D2000984200F0E08005D8A3F57053984200F087
:101D3000D68008BD9D4B984200F0D98003F5F8434A
:101D4000984200F0D88008BD994B984200F0078176
:101D500015D8A3F58033984200F0EE8005D8A3F59E
:101D60008043984200F0DD8008BD924B984200F01D
:101D7000EE8003F58043984200F0ED8008BD8E4B65
:101D8000984200F0F8800AD8A3F50043984200F08A
:101D9000EA8003F58043984200F0E98008BD874B54
:101DA000984200F0EC8003F58043984200F0EB800D
:101DB00008BD834B984200F04D8134D8A3F57C33A5
:101DC000984200F0278115D8A3F50433984200F01B
:101DD0000D8105D8A3F58043984200F0DC8008BD52
:101DE000784B984200F0068103F58063984200F03A
:101DF000098108BD744B984200F020810AD8A3F5F0
:101E00004053984200F00A8103F50053984200F0D5
:101E10000D8108BD6D4B984200F0188103F52043F9
:101E2000984235D008BD6A4B984200F02C8115D8F5
:101E3000A3F57843984200F0178105D8A3F5806395
:101E4000984200F00C8108BD624B984200F011816D
:101E500003F58063984200F0118108BD5E4B984203
:101E600000F020810AD8A3F50063984200F01081A9
:101E700003F58063984200F0108108BD574B9842EB
:101E800000F0158103F58063984200F0158108BDCC
:101E900001200921524B984708BD0020514B98471B
:101EA00008BD01204F4B984708BD02204D4B984775
:101EB000434B1A6C42F055024B4999651A6408BDB0
:101EC0000320484B98473E4B1A6C42F05502464956
:101ED00099651A6408BD0420424B984708BD052047
:101EE000404B984708BD06203E4B984708BD072049
:101EF0003C4B984708BD08203A4B9847304B1A6C2A
:101F000042F00402384999651A6408BD0920354B2E
:101F100098472B4B1A6C42F00402334999651A64B6
:101F200008BD0A202F4B9847254B1A6C42F004023B
:101F30002D4999651A6408BD0B202A4B9847204B00
:101F40001A6C42F00402284999651A6408BD0C20F5
:101F5000244B984708BD0D20224B984708BD0E2002
:101F6000204B984708BD0F201E4B984708BD1020F6
:101F70001C4B984708BD11201A4B984708BD1220EA
:101F8000184B984708BD1320164B984708BD1520DD
:101F9000144B984708BD1620124B984708BD00BF48
:101FA000008007400000014000C0014000C4014023
:101FB00000000440008003400080064000C006404E
:101FC00000000E4000000A4000500A4000600A4035
:101FD00000000F40000C0E40000C0F4000100F409E
:101FE00051190000F5190000400000AA1720354BD8
:101FF000984708BD01200146334B98470020334BDA
:10200000984708BD012002212F4B984701202F4BF4
:10201000984708BD02202D4B984708BD012000219C
:10202000294B98470320294B984708BD01200421DC
:10203000254B98470420254B984708BD01200321D4
:10204000214B98470520214B984708BD06201F4B80
:10205000984708BD042000211B4B984708BD042069
:102060000121194B984708BD04200221164B9847BF
:1020700008BD04200321144B984708BD04200146E5
:10208000114B984708BD052000210F4B984708BD0C
:10209000052001210C4B984708BD052002210A4B61
:1020A000984708BD05200321074B984708BD052028
:1020B0000421054B984708BD05200146024B98476F
:1020C00008BD00BFF519000051190000811A000079
:1020D00008B5B44B984200F030816AD8A3F5A0232C
:1020E000984200F0FE802FD8A3F58033984200F08C
:1020F000E48014D8A3F58033984200F0D28004D84D
:10210000B0F1402F00F0C98008BDA74B984200F005
:10211000CC8003F58043984200F0CB8008BDA34BF0
:10212000984200F0D28005D8A3F57053984200F091
:10213000C88008BD9E4B984200F0CB8003F5F84361
:10214000984200F0CA8008BD9A4B984200F0DD80AA
:1021500015D8A3F58033984200F0CB8005D8A3F5BD
:102160008043984200F0C18008BD934B984200F034
:10217000C48003F58043984200F0C38008BD8F4BB4
:10218000984200F0CE800AD8A3F50043984200F0B0
:10219000C08003F58043984200F0BF8008BD884BA3
:1021A000984200F0C28003F58043984200F0C1805D
:1021B00008BD844B984200F01F8134D8A3F57C33CE
:1021C000984200F0D28015D8A3F50433984200F06D
:1021D000BC8005D8A3F58043984200F0B28008BDCA
:1021E000794B984200F0B58003F58063984200F087
:1021F000B48008BD754B984200F0CB800AD8A3F597
:102200004053984200F0B58003F50053984200F027
:10221000B88008BD6E4B984200F0EA8003F5204379
:10222000984235D008BD6B4B984200F0FE8015D81F
:10223000A3F57843984200F0E98005D8A3F58063C0
:10224000984200F0DE8008BD634B984200F0E380C6
:1022500003F58063984200F0E38008BD5F4B98422D
:1022600000F0F2800AD8A3F50063984200F0E28003
:1022700003F58063984200F0E28008BD584B984215
:1022800000F0E78003F58063984200F0E78008BD26
:1022900001200921534B9847E4E00020524B984716
:1022A000E0E00120504B9847DCE002204E4B98477D
:1022B000D8E003204C4B9847D4E004204A4B984781
:1022C000D0E00520484B9847CCE00620464B984785
:1022D000C8E00720444B9847C4E00820424B984789
:1022E000C0E00920404B9847BCE00A203E4B98478D
:1022F000B8E00B203C4B9847B4E00C203A4B984791
:10230000B0E00D20384B9847ACE00E20364B984794
:10231000A8E00F20344B9847A4E01020324B984798
:10232000A0E01120304B98479CE012202E4B98479C
:1023300098E013202C4B984794E015202A4B98479F
:1023400090E01620284B98478CE01720264B9847A2
:1023500088E00020254B984784E001200221214B92
:1023600098470120214B98477CE002201F4B98475B
:1023700078E0012000211B4B984703201B4B984716
:1023800070E001200421174B98470420174B984711
:1023900068E001200321134B98470520134B984711
:1023A00060E000BF008007400000014000C0014025
:1023B00000C401400000044000800340008006404B
:1023C00000C0064000000E4000000A4000500A40D5
:1023D00000600A4000000F40000C0E40000C0F404F
:1023E00000100F40A11900003D1A0000C91A00009A
:1023F0000620234B984735E004200021214B9847C5
:1024000030E0042001211F4B98472BE004200221DB
:102410001C4B984726E0042003211A4B984721E0E3
:1024200004200146174B98471CE005200021154B5E
:10243000984717E005200121124B984712E005202C
:102440000221104B98470DE0052003210D4B9847C2
:1024500008E0052004210B4B984703E005200146C6
:10246000084B9847084B9A6A40F60C731A4206D1FB
:10247000054B1A6C22F07F02044999651A6408BD65
:10248000C91A0000A119000000000E40400000AA77
:10249000EFF3108272B6BFF35F8F0021074B197004
:1024A000074B4FF02A41996518602AB90122034B66
:1024B0001A70BFF35F8F62B6704700BF380000200C
:1024C00000000E4038B5194C2046194B984701239F
:1024D000A3602246D36813F0010FFBD00020154BF8
:1024E00098474FF0377000210A46134B9847032056
:1024F000124B984712480021124A134B9847104D2F
:10250000124C2846A04710F0010FFAD0EFF31083C9
:1025100072B6BFF35F8F00210D4A11702BB90122F3
:102520000B4B1A70BFF35F8F62B638BD00040A40D0
:10253000D11C000075180000ED2600009124000059
:1025400000000F4080A90300310200009502000046
:102550003800002010B586B06846394B984704A86B
:1025600038496A46384B984704A8384B9847384C46
:102570002046384B9847384B80225A64C3F868216C
:102580005A654FF080729A64C3F864215A67C3F8A1
:102590008820C3F8C820C3F808219A619A629A6318
:1025A0004FF080629A67C3F88820C3F8C820C3F848
:1025B00008219A619A629A639A604FF000629A6762
:1025C000C3F88820C3F8C820C3F808219A619A622A
:1025D0009A639A604FF40012A267C4F88820C4F886
:1025E000C820C4F80821A261A262A263A2604FF4CD
:1025F0008002A267C4F88820C4F8C820C4F8082163
:10260000A261A262A263A2604FF080429A67C3F8FF
:102610008820C3F8C820C3F808215A619A629A63D7
:102620009A6008229A67C3F88820C3F8C820C3F8C4
:1026300008219A619A629A639A6006B010BD00BF41
:10264000BD270000000C0F40D527000081280000A6
:1026500000100E40D11C000000140E40054B1B68FA
:1026600023F0400300280CBF002240221343014AFC
:102670001360704700000A40024B986800F00100A8
:10268000704700BF00000A4010B5024CA047002868
:10269000FCD010BD7926000038B505460C46104B1D
:1026A0001B6898470F4B5B68002C08DB45F02545FD
:1026B000240224F07F4424F0FF042C4304E023F0A0
:1026C0003F0444F025442C43064B5C609A6802F0BA
:1026D0000C02054B1A60024B1B68984738BD00BFBF
:1026E0003C00002000000A40CC0A002008B5002968
:1026F0002DD11D4B984214D91C4B984208D801206B
:102700001B4B984711204FF0FF311A4B984708BDDB
:102710000120174B984710204FF0FF31154B984779
:1027200008BD5AB1144B984208D80120104B984765
:1027300011204FF0FF310F4B984708BD00200C4B84
:10274000984711204FF0FF310A4B984708BD0B4BBB
:1027500098428CBF01200020054B984711204FF074
:10276000FF31044B984708BD80A812010051250293
:102770005D26000099260000001BB70000127A00B9
:1027800082B00D4B1B6813F4003F0CBF40F2433383
:102790004FF437630193019BDB080193019B5A1EA1
:1027A0000192002BFAD140F0AA42034B1A6040F08C
:1027B0002A40186002B07047000C0F4000230360ED
:1027C000436010220272437201228272C27203734A
:1027D000704700BF38B50C46154601604260084698
:1027E000244B9847236813F0080F41D1236813F056
:1027F000010F08D0206820F001001F4B9847236884
:1028000013F0010FFBD1236813F4803F08D0206838
:1028100020F48030184B9847236813F4803FFBD195
:102820006A682B681343287A000200F4F8501843B2
:10283000697A890401F4F8010843AB7A002B0CBFD4
:10284000002180210843EB7A002B0CBF00230223D8
:102850001843094DA847206840F48030A8472368F2
:1028600013F4803FFBD02046044B9847012038BD2D
:10287000002038BDD11C000081270000D1200000BD
:1028800010B50468206820F00100054B98472368C4
:1028900013F0010FFBD12046024B984710BD00BF3B
:1028A00081270000D1200000FEE700BF10B5194BC2
:1028B000194A9A4203D0194B164A9A4204D3184B2C
:1028C000184A9A420FD31AE0174B184CE41A24F016
:1028D0000304043400230F480F495A581A50043394
:1028E000A342FAD1EBE7124B1249C91A21F00301B6
:1028F0001A1D1144002243F8042F8B42FBD10E4BCA
:102900000E4A22F07F029A600D4B98470D4B984774
:10291000FEE700BF000000200C5900000009002065
:10292000400C0020000900200400002003090020C2
:10293000FC0800203B0C002000ED00E0000000003F
:102940006D2F00001D2E0000094B1B6813B9094AAA
:10295000074B1A60064B1B681A180749914204DBA3
:102960001046034A1060184670474FF0FF3070471A
:10297000D00A0020401C0020FC7F00204FF0FF30D8
:10298000704700BF4FF400534B600020704700BFFA
:102990000120704700207047F0B583B004460E4612
:1029A000002301931A4B984209D11F46194D38460E
:1029B00001A9A8470028FAD1019B337019E0164BF2
:1029C000984209D11D46134C284601A9A04700286A
:1029D000FAD1019B337018E0104B984209D11D4683
:1029E0000C4C284601A9A0470028FAD1019B33705E
:1029F0000BE00B4B9C4208D11D46064C284601A912
:102A0000A0470028FAD1019B337003B0F0BD00BF8E
:102A100000400240091100000080024000C0024056
:102A20000000034070B50C461A4B984207D11E4671
:102A3000194D30462146A8470028FAD120E0174B0F
:102A4000984207D11E46144D30462146A84700281B
:102A5000FAD117E0124B984207D11E460E4D304670
:102A60002146A8470028FAD10EE00E4B98420DD11E
:102A70001E46094D30462146A8470028FAD107E0F6
:102A8000012070BD012070BD012070BD002070BD0F
:102A9000012070BD00400240F110000000800240A3
:102AA00000C002400000034070B586B0184C194BBE
:102AB0001C60194A194B1A60194A1A4B1A604FF4D4
:102AC000E1330093C02301934FF400630293002588
:102AD000039504952046144B98472046134B98477E
:102AE000024620466946124B98472046114B9847AC
:102AF0002046114B9847114E336898682946104C70
:102B0000A047336858682946A04706B070BD00BF8B
:102B100000800240380C0020252A0000340C0020E0
:102B200099290000300C0020D11C00000D1B000072
:102B30008D100000E1100000E910000040000020AE
:102B40008530000000EBC000074B53F820205309EC
:102B500003F5001303F5E1635B0202F01F0201219C
:102B600001FA02F29A657047D40A002000EBC00017
:102B7000074B53F82020530903F5001303F5E163D5
:102B80005B0202F01F02012101FA02F25A6570474E
:102B9000D40A002038B504460D46B1F57A7F0AD034
:102BA000144B9847C5F57A7505FB00F0124BA3FB53
:102BB0000012920900E0012204EBC4030F4901EB6B
:102BC00083031B7A53B90B46E100081903EB80001D
:102BD0000346C06819690A4B984738BD074BE100A6
:102BE000081903EB80000346C0681969054B984734
:102BF00038BD00BFE5130000D34D6210D40A002099
:102C0000CD130000D913000008B50021014B9847EF
:102C100008BD00BF952B000030B41149C400231833
:102C200051F823506B0903F5001303F5E1635B02D0
:102C300005F01F05012202FA05F55D64C3F868512D
:102C4000204451F820104B0903F5001303F5E1630C
:102C50005B0201F01F018A409A6530BC704700BFDB
:102C6000D40A00202DE9F0410446544B9847544BB8
:102C7000236006221A600C225A60524EDE60002445
:102C80001C724FF0020CC3F810C04F4D5D614F48ED
:102C900098614F49D9614F4A1A624A275F625027AB
:102CA0009F62DFF838E1C3F830E0012783F82C7029
:102CB0005C639D63D86319645A644FF02108C3F8BC
:102CC00048804FF00B08C3F84C8083F850705E6565
:102CD0009F65DD65186659669A664FF00F08C3F860
:102CE0006C804FF00D08C3F8708083F874709E6795
:102CF000C3F87CC0C3F88050C3F88400C3F88810C0
:102D0000C3F88C204FF02B0CC3F890C04FF0090C87
:102D1000C3F894C083F89870C3F89C60C3F8A040CF
:102D2000C3F8A450C3F8A800C3F8AC10C3F8B0208F
:102D30004FF0200CC3F8B4C04FF00A0CC3F8B8C071
:102D400083F8BC40C3F8C060C3F8C470C3F8C8506F
:102D5000C3F8CC00C3F8D010C3F8D4202527C3F89B
:102D6000D8704F27C3F8DC7083F8E040C3F8E4E084
:102D7000C3F8E840C3F8EC50C3F8F000C3F8F4100F
:102D8000C3F8F8204927C3F8FC700827C3F800717E
:102D900083F80441C3F80861C3F80C41C3F810512B
:102DA000C3F81401C3F81811C3F81C210A4D2046BA
:102DB000A8470134082CFAD1BDE8F0818512000043
:102DC000D40A002000000140092C0000452B00001F
:102DD0006D2B0000952B0000192C000000400140D5
:102DE0002DE9F0410024DFF83080094F094E2046DC
:102DF000C047251D2846B84720460021B047284631
:102E00000021B0470134042CF1D1BDE8F08100BFAE
:102E10006D2B0000952B0000452B00002DE9F0479D
:102E200084B03C4B98473C4B98473C483C4B9847B8
:102E30003C4B98473C4B98473C4D8026AE65002460
:102E4000039402940194009401A8394B984702A876
:102E5000384B984703A8384B9847684601A903AAFE
:102E6000364B98476E65364B9847AE653548364BBE
:102E70009847364B98476E65039B1C604FF0C80916
:102E8000334EDFF8E480334F039BD3F800A0009B60
:102E9000D3F8B800B047304D2846304CA047009BCF
:102EA000186FB0472846A0470020B0472846A047E3
:102EB000009BD3F8A000B0472846A047009B986A23
:102EC000B0472846A0470020B0472548A047A8FBA8
:102ED0000A23DB094FF4966202FB13A32BB9484681
:102EE0004FF4FA711F4B98478146A7FB0A239B09B1
:102EF000C82202FB13A3002BC6D100252C46009B41
:102F00002B445B692046984701341835082CF6D1CC
:102F1000BAE700BFC52400005525000000100E4090
:102F2000D11C000069110000A92A000000140E4005
:102F300041050000652C000055060000F106000068
:102F4000E12D0000254934002D0000200D05000072
:102F5000110D00001F85EB5184580000B92F0000AF
:102F60008858000031070000B5814E1B70B50E4B2C
:102F70000E4DED1AAD1000241E46AC4204D056F89A
:102F8000242090470134F8E702F0AAFC084D094BD1
:102F9000ED1AAD1000241E46AC4204D056F8242091
:102FA00090470134F8E770BDEC580000EC58000081
:102FB000F4580000EC5800000FB407B5064904AB04
:102FC000086853F8042B8168019300F012F903B0EC
:102FD0005DF804EB04B07047400000200EB403B568
:102FE00003AB816853F8042B019300F002F902B09F
:102FF0005DF804EB03B0704710B50023934203D093
:10300000CC5CC4540133F9E710BD0244034693423B
:1030100002D003F8011BFAE77047000030B5044600
:1030200089B008460D4600F0A9F8114B069301231C
:10303000059007931844A168049504AB01930223FB
:1030400002938B8903909A0406D443F400538B8136
:103050004B6E23F400534B66204601AA01F0B0F8F2
:1030600000280CBF0A204FF0FF3009B030BD00BF70
:1030700092580000024B01461868FFF7CFBF00BF0F
:103080004000002000290CBF022200224FF4806380
:1030900000F000B82DE9F0411D46364B1F6804468C
:1030A0000E46904627B1BB6B13B9384600F036FE8A
:1030B000B8F1020F59D8002D57DB3846214600F0F1
:1030C000E3FD00236360A361A3891B0603D5384693
:1030D000216900F0BDFFA389B8F1020F23F083033B
:1030E000A38112D036BB002D08BF4FF4806528465F
:1030F00001F092FA0646C8B94FF4806001F08CFAEC
:10310000064688B94FF0FF3000E00020A38943F065
:103110000203A3810023A36004F14303236023611E
:1031200001236361BDE8F0814FF48065A38943F01A
:103130008003A381B8F1010F05D1A38943F00103F6
:10314000A3816B42A3610C4BFB63A389266003F050
:10315000080080B22661656148B113F0030F18BF03
:103160000025A5600020BDE8F0814FF0FF30BDE8EC
:10317000F08100BF40000020D93C0000034613F856
:10318000012B002AFBD1181A0138704793682DE9EA
:10319000F04781460F4614461BB953601846BDE8F8
:1031A000F0874B6E9D041DD51568A3680835BBB12B
:1031B00055F8043C55F808AC4FEA930800264645FC
:1031C00009DA48465AF826103A4600F087FE431CB2
:1031D0000AD00136F3E7A368A3EB8803A360E4E712
:1031E000184601E000F0ECFF0023A3606360BDE837
:1031F000F0872DE9F04FADB0884602921C461E467E
:10320000834618B1836B0BB900F088FDB8F80C3019
:10321000980409D443F40053A8F80C30D8F864306B
:1032200023F40053C8F86430B8F80C30190709D5F6
:10323000D8F8103033B1B8F80C3003F01A030A2B69
:1032400014D108E05846414600F028FC0028F2D08E
:103250004FF0FF30DBE3B8F90E30002B06DB5846A9
:103260004146029A234600F0E3FBD0E300231CAA68
:103270000F921193109394460A930593029B1C4658
:1032800013F8012B1AB90298251A03D11DE0252A3B
:10329000F5D1F8E7119B02992B441193109B013350
:1032A000072B8CE82200109302DC0CF1080C09E0DB
:1032B000584641460FAAFFF769FF002840F0A18356
:1032C0000DF1700C059A2A4405922378002B00F02A
:1032D0009183002201348DF837204FF0FF3A049299
:1032E0001746651C23780295582B65D02EDC2E2BB3
:1032F00077D012DC2A2B67D008DC202B60D0232B60
:1033000040F0028247F00107029CEAE72B2B01D133
:103310001A46F9E72D2B61D0F6E1392B08DC312B69
:1033200080F28180302B40F0EF8147F08007EBE79F
:103330004F2B00F0E180552B00F02181442B40F011
:10334000E3818DF8372047F0100795E06E2B00F0F1
:10335000B7800DDC682B77D005DC632B00F0848010
:10336000642B26D0D0E1692B23D06C2B6FD0CBE11E
:10337000712B76D013DC6F2B00F0C080702B40F0E7
:10338000C38130238DF838309F4834680A90782301
:10339000002547F002078DF8393004362FE1752BF0
:1033A00000F0EF80782B00F00481732B40F0AC81AB
:1033B000C0E08DF837205FE08DF83720934CFBE0BC
:1033C000002A08BF20229FE7331D36680496002E8E
:1033D00001DB1E4698E7754204951E4647F0040738
:1033E00092E7029C23782A2B04F1010102D04FF0CE
:1033F000000A0AE0D6F800A00291331DBAF1000FCE
:103400001E4681DA4FF0FF3A7EE7A3F1300009282B
:1034100005D80A2303FB0A0A11F8013BF5E74AEA3B
:10342000EA7A029160E700250495049C303B0A216A
:1034300001FB04340299049411F8013BA3F130001C
:103440000928EED80291F0E747F040075CE7029DBB
:103450002B786C2B02D10135029502E047F0100762
:1034600052E747F020074FE733688DF848300025D2
:103470008DF83750043651E1BA0607D5073626F0E5
:10348000070303F10806D3E900450DE017F0100F1C
:1034900006F1040301D0346804E0346817F0400FEB
:1034A00018BF24B2E5171E46002C75F1000080F20B
:1034B000AF802D23644265EB45058DF83730A7E0DA
:1034C00017F0200F8DF8372006F1040107D0059C76
:1034D0003068E51722462B46C0E900230AE0FB06C8
:1034E00005D47F0603D53368059C1C8002E0336851
:1034F000059D1D600E46C1E647F0100717F020033A
:1035000008D0073626F00703D3E9004503F1080683
:10351000002375E017F0100106F1040206D117F040
:10352000400303D0348800251646F1E734680025AF
:10353000164665E0D6F8009000239A4506F1040689
:103540008DF83730484611DB19465246CDF804C095
:1035500001F07CFADDF804C0002800F0E480C9EB3B
:1035600000005045B8BF82460025DDE0CDF804C01C
:10357000FFF704FE00258246DDF804C0D4E047F0E2
:103580001007BD0607D5073626F0070303F1080626
:10359000D3E900450BE017F0100F06F1040303D147
:1035A0007C0601D5348800E0346800251E460123DE
:1035B00026E0154C8DF83720B8060A9407D5073653
:1035C00026F0070202F10806D2E900450BE017F0E9
:1035D000100F06F1040203D1790601D5348800E00A
:1035E000346800251646FA0709D554EA050006D0C6
:1035F00030228DF838208DF8393047F00207022349
:1036000000228DF8372004E0C5580000B4580000AF
:103610000123BAF1000FA8BF27F0800754EA050183
:1036200002D1BAF1000F5ED0012B1FD0022B0DF199
:103630006F0345D0E00840EA4571E808069107901D
:1036400004F00702DDE90645303254EA05019946E7
:103650001A7003F1FF33EDD1F80749464ED5302AF1
:103660004CD09946302301F8013C47E0002D08BFBB
:103670000A2C05D230348DF86F400DF16F093DE012
:103680000DF16F020392204629460A220023CDF84D
:1036900004C001F0B3FD039BDDF80C90303203F859
:1036A00001292046039329460A22002301F0A6FDA2
:1036B00004460D4654EA0500DDF804C0E3D11DE0E0
:1036C00004F00F020A998A5C994603F8012922093D
:1036D00042EA0570290908900991DDE9084554EA94
:1036E0000502EDD10AE03BB9F90705D50DF1B009A6
:1036F000302309F8413D01E00DF1700955460DF107
:10370000700AC9EB0A0A0FE08DF83720002B00F091
:10371000718100258DF848308DF837504FF0010A3F
:103720000DF1480900E005469DF83730AA45ACBFC9
:1037300054462C4603B1013417F00203039318BF1B
:10374000023417F084030B933BD10498031B002B26
:1037500037DDA64ACCF80020102B1BDD1022CCF858
:103760000420119A10321192109A0132072A1092F5
:1037700002DC0CF1080C0BE0584641460FAA0193FD
:10378000FFF704FD019B002840F03B810DF1700C18
:10379000103BDEE7119ACCF8043013441193109BD0
:1037A0000133072B109302DC0CF1080C09E058469A
:1037B00041460FAAFFF7EAFC002840F022810DF1F4
:1037C000700C9DF83730DBB10DF13703CCF80030C9
:1037D0000123CCF80430119B01331193109B01336A
:1037E000072B109302DC0CF1080C09E05846414607
:1037F0000FAAFFF7CBFC002840F003810DF1700CFD
:10380000039BD3B10EABCCF800300223CCF80430CC
:10381000119B02331193109B0133072B109302DC91
:103820000CF1080C09E0584641460FAAFFF7AEFC20
:10383000002840F0E6800DF1700C0B9B802B3FD1EF
:10384000049B1B1B002B03933ADD039B102B684B3F
:10385000CCF800301BDD1023CCF80430119B103362
:103860001193109B0133072B109302DC0CF1080C11
:1038700009E0584641460FAAFFF788FC002840F0AF
:10388000C0800DF1700C039B103B0393DDE7039B9D
:10389000CCF804300398119B03441193109B01331F
:1038A000072B109302DC0CF1080C09E05846414646
:1038B0000FAAFFF76BFC002840F0A3800DF1700CFD
:1038C000CAEB0505002D34DD494BCCF80030102D36
:1038D00019DD1023CCF80430119B10331193109B89
:1038E0000133072B109302DC0CF1080C09E0584659
:1038F00041460FAAFFF74AFC002840F082800DF1F4
:10390000700C103DE0E7119BCCF804501D44109B57
:1039100011950133072B109302DC0CF1080C08E021
:10392000584641460FAAFFF731FC002869D10DF136
:10393000700C119B53441193109B0133072B8CE89F
:103940000006109302DC0CF1080307E058464146DC
:103950000FAAFFF71BFC002853D11CAB7A070AD42F
:10396000059D0498119B8442ACBF2D192D18059517
:10397000002B35D02EE004990D1B002DF0DD1B4AE5
:103980001A60102D15DD10225A60119A1032119212
:10399000109A0132072A109201DC083307E05846DA
:1039A00041460FAAFFF7F2FB00282AD11CAB103DBD
:1039B000E5E75D60119B1D44109B11950133072BBA
:1039C0001093CDDD584641460FAAFFF7DFFB0028D4
:1039D000C6D016E0584641460FAAFFF7D7FB80B97C
:1039E000002310930DF1700C48E400BF94580000C0
:1039F000A4580000119B23B1584641460FAAFFF777
:103A0000C5FBB8F80C305B063FF522AC05982DB02D
:103A1000BDE8F08F30B51346044A05460C461068E1
:103A200029462246BDE83040FFF7E3BB40000020B6
:103A300070B50C468989ADF58D6D21F00201ADF8A8
:103A40000C10616E1991E189ADF80E10E1690791D2
:103A5000616A09911AA9009104914FF48061029161
:103A600005910021069169460646FFF7C2FB051E37
:103A700007DB3046694600F007F9002818BF4FF011
:103A8000FF35BDF80C305B0603D5A38943F0400336
:103A9000A38128460DF58D6D70BD00BF38B52B4B49
:103AA000054618680C4618B1836B0BB900F036F95F
:103AB000A28993B2180720D4D90605D4092342F06D
:103AC00040022B60A2813BE0580712D5216B41B127
:103AD00004F14003994202D0284600F0B9FA0023CD
:103AE0002363A38923F02403A38100236360236954
:103AF0002360A38943F00803A38123694BB9A389F9
:103B000003F42073B3F5007F03D02846214600F06C
:103B10001FFDA38913F0010205D00022A260626993
:103B20005242A26103E0990758BF6269A26022690C
:103B30004AB903F0800080B230B143F04003A38162
:103B40004FF0FF3038BD002038BD00BF40000020DE
:103B5000024B13B1024800F005B8704700000000A6
:103B6000B13E0000014600200246034601F05EBA65
:103B70008A8993B22DE9F041054618070C465ED4B8
:103B80004B6842F40062002B8A8102DCCB6B002B75
:103B900018DDA66AB6B102F48052002392B22F68F3
:103BA0002B600AB1226D10E0E16928460123B0477D
:103BB000411C024609D12B683BB11D2B01D0162BAD
:103BC0004BD12F600020BDE8F081A3895B0705D5AC
:103BD0006368D21A236B0BB1E36BD21AA66AE16950
:103BE00028460023B047461CA28905D12B681BB18B
:103BF0001D2B01D0162B1DD122F4006292B200239E
:103C00006360D1042369A281236004D5421C01D1E1
:103C10002B6803B92065216B2F600029D2D004F1F5
:103C20004003994202D0284600F012FA0020206397
:103C3000BDE8F08142F04002A281BDE8F0810E694A
:103C4000002EBFD09B070A6808BF4B690E6018BFE3
:103C50000023C6EB02088B6012E0A38943F0400307
:103C6000A3814FF0FF30BDE8F081676AE169284623
:103C700032464346B8470028EFDD0644C0EB08084B
:103C8000B8F1000FF1DC9DE738B50C46054618B1D8
:103C9000836B0BB900F042F8B4F90C0028B1284648
:103CA0002146BDE83840FFF763BF38BD014620B963
:103CB000044B0549186800F0EBBB044B1868FFF78C
:103CC000E3BF00BF8C580000893C0000400000208A
:103CD0000020704700207047014900F0BDBB00BFC5
:103CE0006151000070B54B1E68255D430E4605F11D
:103CF000740100F0A1FC044640B1002180E84200BC
:103D00000C30A06005F16802FFF77FF9204670BD16
:103D1000014B1868FFF7E0BF8C5800002DE9F84F01
:103D2000846B0646002C62D1324BC3630323456883
:103D3000C0F8E43200F53B73C0F8E8320423C0F861
:103D4000E042DFF8B8A0AB81DFF8B490DFF8B480D0
:103D5000294F2C606C60AC606C66EC812C616C61EE
:103D6000AC6105F15C0021460822FFF74EF9ED61D8
:103D7000C5F820A0C5F82490C5F82880EF62B56882
:103D800009234FF0010BAB812C606C60AC606C665A
:103D9000A5F80EB02C616C61AC6105F15C002146A8
:103DA0000822FFF732F9ED61C5F820A0C5F824908C
:103DB000C5F82880EF62F5681223AB8102232C60DE
:103DC0006C60AC606C66EB812C616C61AC6105F180
:103DD0005C0021460822FFF718F9ED61C5F820A024
:103DE000C5F82490C5F82880EF62C6F838B0BDE861
:103DF000F88F00BFD93C0000974E0000154E000020
:103E00003B4E0000734E0000F8B51C4B1E68B36BB0
:103E1000074613B93046FFF781FF06F53876B468D8
:103E20007368013B04D4B4F90C5075B16834F8E7F9
:103E300033682BB938460421FFF754FF306008B1CE
:103E40003668ECE70C233B60F8BD4FF6FF73E38167
:103E50000123A38165662560A560656025616561B4
:103E6000A56104F15C0029460822FFF7CEF825631E
:103E700065636564A5642046F8BD00BF8C580000EA
:103E80007047704770477047024B0349186800F04D
:103E9000E3BA00BF40000020D13C0000024B0349C0
:103EA000186800F0D9BA00BF40000020D53C0000DF
:103EB00038B5084D084C641BA41005EB840524B1EB
:103EC00055F8043D013C9847F9E7BDE8384001F05A
:103ED00011BD00BF005900000459000093892DE96D
:103EE000F3410E4699048046144606D443F4005329
:103EF0009381536E43F40053536600F00BFB01288B
:103F000006D1731EFE2B03D88DF8046007460EE021
:103F10003246404601A904F15C0301F01DF8421C41
:103F2000074604D1A38943F04003A3812BE0002579
:103F3000BD4224D0A268013A002AA26001AB16DA81
:103F4000A1698A4208DB22685B5D137023681978D7
:103F50000A2910D1404601E0595D4046224600F052
:103F6000A9FFB0F1FF335842584130B109E022684F
:103F70005B5D13702368013323600135D8E7304659
:103F800001E04FF0FF3002B0BDE8F081084B70B5A2
:103F90001C6806460D4624B1A36B13B92046FFF7F3
:103FA000BDFE204631462A46BDE87040FFF796BF69
:103FB00040000020F8B5234D0E46044600F070FD89
:103FC000AB685F6827F00307BE1B06F6EF7626F4A2
:103FD0007F6626F00F06A6F58056B6F5805F04DAF8
:103FE000204600F05EFD0020F8BD2046002100F0D4
:103FF00001FFAB683B449842F2D12046714200F089
:10400000F9FE013010D12046002100F0F3FEAB682C
:10401000C21A0F2AE4DD0C490968401A0B4942F024
:10402000010208605A60DBE7AB68BF1B47F001077D
:104030005F60064B1A682046961B1E6000F031FD3B
:104040000120F8BDEC040020F4080020F80B00204B
:10405000F8B506460D46002900F0A98000F020FDC5
:1040600055F804CC524CA5F108032CF00102981825
:10407000A1684768884227F003070CF001011BD1B3
:104080003A4439B955F8081C5B1A0A449868D9684B
:10409000C160886042F001015960A360454B1B6814
:1040A0009A4204D3444B30461968FFF783FF3046E9
:1040B000BDE8F84000F0F5BC476079B955F8085CF8
:1040C0005B1B2A449D6804F1080C654508D0D3F8B1
:1040D0000CC0C5F80CC0CCF8085002E0002100E08C
:1040E0000121C5196D68ED070ED43A44856841B9C0
:1040F000324FBD4205D1636123610121DD609D60C6
:1041000002E0C068E860856042F0010058609A50A3
:104110000029CCD1B2F5007F0ED2D2089110012037
:10412000884061680143616004EBC204A2689A6040
:10413000DC60A360D360BAE7510A042902D8910970
:10414000383115E0142901D85B3111E0542902D827
:10415000110B6E310CE0B1F5AA7F02D8D10B77318B
:1041600006E040F2545081429ABF910C7C317E218E
:1041700004EBC1040E48A568A54201D029460BE016
:104180000122891002FA01F142680A43426029467D
:1041900008E08968A14204D0486820F00300824208
:1041A000F7D3CD68DD609960AB60CB607FE7F8BD89
:1041B000EC040020F8080020F40B0020F404002098
:1041C00093682DE9F74F80460C4691460BB90020C5
:1041D0003CE18B8918070ED50B6963B1B4F80CA0CC
:1041E000D9F800600AF0020C1FFA8CF333B34FF0D9
:1041F000000A57461BE040462146FFF74FFC0028C7
:10420000ECD021E1934BE169656A9F4238BF3B46A0
:1042100040465246A847002840F31281D9F808309A
:1042200082443F1A181AC9F808000028CFD0002F7E
:10423000E8D1D6F800A077680836F8E71AF0010A46
:1042400004D09B4601931F469A46BFE0554625B9C8
:10425000D6F800A075680836F9E7A289A768910525
:1042600052D5BD4242D312F4906F3DD021692368EC
:104270005B1A01936369022003EB430393FBF0FB9A
:10428000019B581C2844834538BF8346530540464C
:104290000FD5594600F0D0F90746B8B1019A216907
:1042A000FEF7AAFEA28922F4906242F08002A28167
:1042B00010E05A4600F0F6FB074658B9404621691F
:1042C000FFF7C6FEA38923F08003A3810C23C8F85F
:1042D0000030B5E0019B27611F44C3EB0B0327604F
:1042E000C4F814B02F46A360BD4200D22F463A4610
:1042F0002068514600F0B9FBA368DB1BA36023686C
:104300001F4427602F462AE020682369984202D87C
:1043100063699D4213D2BD4238BF2F463A4651468B
:1043200000F0A3FBA3682268DB1B3A44A360226071
:10433000ABB940462146FFF7A7FC80B180E06FF0A3
:10434000004E754538BFAE469EFBF3FE676AE169D5
:104350004046524603FB0EF3B847071E70DDD9F8FE
:104360000830BA44ED1BDF1BC9F80870002F7FF43A
:104370006EAF2CE7019D002D31D020682269A56821
:10438000D4F814E0D34534BF5B465346904236D947
:104390007544AB4233DD39462A4600F066FB23689C
:1043A0002B44236040462146FFF76EFC002847D18E
:1043B000BBEB050B3CD0D9F808302F44C5EB0A0AFB
:1043C0005D1BC9F80850002D3FF401AFBAF1000F92
:1043D000D0D1002596E8800401950836F6E73846E6
:1043E0000A21524600F032FB20B100F1010CC7EB6C
:1043F0000C0B01E00AF1010B01250195BDE77345A6
:1044000008DB656AE16940463A467346A847051EDF
:10441000CEDC15E01A463946009300F026FB009BDF
:10442000A268D21AA26022681A4422601D46BFE721
:1044300040462146FFF728FC10B9CDF804B0BAE792
:10444000A38943F04003A3814FF0FF3003B0BDE8E0
:10445000F08F00BF00FCFF7F2DE9F041884600F59A
:10446000387400268CB1A5686768013F0BD4AB890E
:10447000012B06D9B5F90E30013302D02846C047CA
:1044800006436835F1E72468ECE73046BDE8F08183
:104490002DE9F8438046894600F53874002694B12A
:1044A000A5686768013F0CD4AB89012B07D9B5F922
:1044B0000E30013303D040462946C84706436835CD
:1044C000F0E72468EBE73046BDE8F88310B5144602
:1044D0000AB90B4810BD10460A4900F0E0FC00285C
:1044E000F7D02046064900F0DAFC0028F1D020463B
:1044F000054900F0D4FC0028014818BF002010BD79
:1045000090580000D65800009358000000487047AB
:1045100070040020014B186A704700BF700400202F
:1045200000487047940400200020704700487047FE
:10453000B40400200A460349034608681946FFF7F9
:10454000C5BF00BF4000002000487047B4040020F1
:10455000F0B58B899D0791B006460C463AD4B1F967
:104560000E1000290BDAA38913F0800F43F40063C7
:104570000CBF4FF480654025A38100271FE001AAEE
:1045800000F0F6FD0028EEDB029B03F47043B3F568
:1045900000514F424F41B3F5004FA3890AD1A26A9F
:1045A0001B498A4206D143F480634FF48065A3819E
:1045B000E56404E043F40063A3814FF48065304672
:1045C000294600F039F860B9A3899A051DD443F053
:1045D0000203A38104F14303236023610123636188
:1045E00013E00C4BF363A389206043F08003A381A5
:1045F000206165614FB13046B4F90E1000F0CAFD7C
:1046000018B1A38943F00103A38111B0F0BD00BF2D
:10461000734E0000D93C0000024B0146186800F0C0
:104620000BB800BF40000020024B01461868FFF79E
:104630000FBD00BF400000202DE9F74F01F10B0432
:10464000162C074603D934F0070401D502E01024E4
:104650008C4202D20C233B60E0E1384600F020FAA5
:10466000B4F5FC7FA44D14D2E20805EBC203DE686A
:104670009E4206D106F1080376699E4208BF0232C7
:1046800043D07368F268B16823F00303CA60916095
:104690005DE0620A1AD0042A02D8A209383218E072
:1046A000142A01D85B3214E0542A02D8220B6E324D
:1046B0000FE0B2F5AA7F02D8E20B773209E040F2B0
:1046C00054539A4204D8A20C7C3202E03F2200E00C
:1046D0007E2205EBC203DE689E4215D0716821F090
:1046E0000301081B0F2801DD013A0DE0002809DB5A
:1046F000F368B268D3609A6073185A6842F0010296
:104700005A6096E1F668E7E701327B492E6901F1CC
:104710000800864286466DD0736823F00303C4EB1D
:10472000030CBCF10F0F0DDD33194CF0010244F006
:10473000010474604B610B61D86098605A6043F863
:104740000CC076E1BCF1000F4861086101DB334425
:10475000D3E7B3F5007F11D2DB0898104FF0010CBE
:104760000CFA00FC48684CEA0000486001EBC30109
:104770008B68B360F1608E60DE603BE0580A04280D
:1047800002D89809383015E0142801D85B3011E0C0
:10479000542802D8180B6E300CE0B0F5AA7F02D86E
:1047A000D80B773006E040F2545188429ABF980CFB
:1047B0007C307E2005EBC00CDFF83C81DCF8081073
:1047C00061450DD10123801003FA00F0D8F80430C0
:1047D0000343C8F804300B4608E08968614504D0FB
:1047E000486820F003008342F7D3CB68F360B160E0
:1047F0009E60CE600121931001FA03F369688B4239
:104800005ED80B4206D122F003025B000B4202F19C
:104810000402FAD005EBC20080469446D8F80C603A
:1048200046452DD0716821F00309C4EB09010F2919
:1048300013DD331944F00104F268746056F8080F70
:10484000C260906041F001026B612B61C3F80CE023
:10485000C3F808E05A6059500CE000290EDB06EB63
:1048600009014B6843F001034B60F36856F8082FC9
:10487000D3609A60384600F014F9DEE0F668CFE7BE
:104880000CF1010C1CF0030F08F10808C6D19107C8
:1048900004D16A6822EA03026A6006E0A0F1080116
:1048A0000068884202F1FF32F1D069685B008B42F8
:1048B00006D82BB162460B42ACD104325B00FAE75A
:1048C000D5F80890D9F8043023F0030BA34504D39E
:1048D000C4EB0B030F2B00F3A38008490A6804EB19
:1048E000020AD5F80824013209EB0B03884607D1E8
:1048F0000AF1100A0CE000BFEC040020F40B0020C9
:104900000AF5805A0AF10F0A2AF47F6A2AF00F0A80
:1049100038465146019300F06DFA421C0646019B51
:104920006FD0984201D2A9456BD1D8F804209E429D
:104930005244C8F8042008D1C6F30B0129B9AB686A
:10494000DA444AF001025A604DE0D5F8081401310A
:1049500003D13C4BC3F8086403E0F31A1A44C8F8C7
:10496000042016F007031CBFC3F10803F618B24475
:1049700003F58053CAF30B0ACAEB030A51463846C3
:1049800000F038FA431C04BF30464FF0000AD8F854
:104990000430AE60801B5044534440F00100A945F0
:1049A000C8F8043070601ED0BBF10F0F02D801238D
:1049B000736026E0D9F80430ABF10C0B2BF0070B39
:1049C00003F001034BEA0303C9F8043009EB0B03BE
:1049D0000522BBF10F0F5A609A6004D9384609F1DD
:1049E0000801FFF735FBD8F80430D8F82C209342A3
:1049F00084BF154AD362D8F83020934284BF124A4C
:104A00001363AB685A6822F00302A242C4EB0203AC
:104A100001D30F2B04DC384600F043F800260CE0ED
:104A2000AE6844F00102344443F001037260AC60AC
:104A30006360384600F035F80836304603B0BDE80C
:104A4000F08F00BFEC040020F40B002010B5C9B2B9
:104A500002449042034606D01C788C4200F10100CB
:104A6000F7D1184610BD002010BD814270B501D3AA
:104A700000230EE08C18A042FAD28518134613F1D9
:104A8000FF3305D3514266182944F65CCE54F6E74D
:104A900070BD934203D0CC5CC4540133F9E770BDC0
:104AA000704770472DE9F74F81460C4629B91146EA
:104AB00003B0BDE8F04FFFF7BFBD0192FFF7F0FF75
:104AC000019A54F8045C02F10B07162FA4F10808B0
:104AD00025F0030603D937F0070701D502E01027B8
:104AE000974204D20C23C9F8003000207EE1BE4278
:104AF00080F25481A249D1F808E008EB060373451F
:104B00008B46586805D020F0010119444968C9074F
:104B100025D420F00300734500EB060117D107F1FF
:104B2000100C61451DDB08EB0705C91B41F00101B5
:104B3000CBF80850696054F8043C03F001031F43AC
:104B4000484644F8047CFFF7ACFF20464EE1B942EA
:104B500007DBDA689B680E46DA6093601EE100208E
:104B60000346E90700F1C98054F8085CC5EB080565
:104B7000696821F0030101EB060A002B00F0888030
:104B800073454BD10AEB000307F110018B427FDB29
:104B9000A846EA6858F8081FCA609160321F242AA4
:104BA00025D8132A1BD92168A9606168E9601B2AEE
:104BB00003D805F11002083412E0A1682961E16808
:104BC0006961242A03D005F11802103408E0226933
:104BD000AA616169E96105F12002183400E04246EA
:104BE0002168116061685160A168916005E04046EC
:104BF00021460193FFF739FF019BEA19DB1B43F0C4
:104C00000103CBF8082053606B6803F001031F43D6
:104C100048466F60FFF745FF4046E7E00AEB000BB0
:104C2000BB4535DBDA689B682846DA60936050F84C
:104C3000082FEB68D3609A60321F242A23D8132AE6
:104C40001AD92368AB606368EB601B2A03D805F1AF
:104C50001000083410E0A3682B61E3686B61242A1C
:104C600003D005F11800103406E02369AB616369D5
:104C7000EB6105F12000183423680360636843602A
:104C8000A368836002E02146FFF7EFFE5E462EE058
:104C9000BA4532DB2846EB6850F8082FD3609A609B
:104CA000321F242A25D8132A1AD92368AB606368D7
:104CB000EB601B2A03D805F11000083410E0A3684C
:104CC0002B61E3686B61242A03D005F118001034CE
:104CD00006E02369AB616369EB6105F120001834DC
:104CE0002368036063684360A36883605646A846F0
:104CF00054E02146FFF7B9FEF8E748461146FFF7B2
:104D00009BFC0546002844D054F8043C23F00103E2
:104D1000A0F1080243449A4205D150F8043C23F024
:104D200003031E443AE0321F242A2BD8132A1ED92B
:104D300023680360636843601B2A04D800F10803FA
:104D400004F1080215E0A3688360E368C360242AC5
:104D500004D000F1100304F110020AE0236903619A
:104D60006169416100F1180304F1180201E0034692
:104D70002246116819605168596092689A6004E08F
:104D8000EC0400202146FFF770FE48462146FFF75D
:104D90005FF94846FFF785FE284627E0F31B0F2BF7
:104DA000D8F8042013D908EB070102F001021743D9
:104DB00043F001020B44C8F804704A605A6842F09C
:104DC00001025A6048460831FFF742F909E002F053
:104DD000010232434644C8F80420736843F00103DB
:104DE00073604846FFF75DFE08F1080003B0BDE8B8
:104DF000F08F00BF38B5064C0023054608462360F7
:104E0000FDF7A2FD431C02D1236803B12B6038BD1E
:104E10003C0C002010B50C46B1F90E1000F0DCF986
:104E2000002803DB236D0344236510BDA38923F40D
:104E30008053A38110BD002070472DE9F0411D462D
:104E40008B89DB0507460C46164605D5B1F90E10D1
:104E50000022022300F0AEF9A389B4F90E1023F466
:104E60008053A381384632462B46BDE8F04100F01E
:104E7000CBB810B50C46B1F90E1000F09BF9431CED
:104E8000A38903D123F48053A38110BD43F480533D
:104E9000A381206510BDB1F90E1000F013B910F810
:104EA000012B11F8013B012A28BF9A42F7D0D01AF2
:104EB0007047000070B50D461446064618B1836B66
:104EC0000BB9FEF72BFFA369A360A38919070DD5C2
:104ED00023695BB1A3899A04EDB210D443F4005363
:104EE000A381636E23F40053636608E030462146D5
:104EF000FEF7D4FD0028EDD04FF0FF3070BD2369E0
:104F00002068C01A6369984205DB30462146FEF7E7
:104F1000BBFE0028F0D1A368013BA36023685A1CA4
:104F200022601D7063690130984204D0A389DB07B9
:104F300007D50A2D05D130462146FEF7A5FE0028EB
:104F4000DAD1284670BD0A46024903460868194668
:104F5000FFF7B0BF400000202DE9F0411D46104B87
:104F600086B0044690460E461F6839B9FFF7CEFA60
:104F70000095034603A92046324606E0FFF7C6FA2D
:104F800000950346314620464246B847431C03D1AC
:104F900000232B608A23236006B0BDE8F08100BFA8
:104FA000FC08002030B51346044A05460C4610683C
:104FB00029462246BDE83040FFF7CEBF4000002022
:104FC00049B1FF2A04D98A2303604FF0FF307047AC
:104FD0000A7001207047084670472DE9F341984652
:104FE000084B05461C680F461646FFF78FFACDF8AA
:104FF00000800346394628463246A04702B0BDE845
:10500000F08100BFFC08002038B5074C05460020A1
:105010002060084611461A46FBF738FF431C02D1B0
:10502000236803B12B6038BD3C0C00202DE9F84308
:105030009846224B1C680646D4F848010F46914614
:1050400018B904F5A670C4F8480143681F2B16DD93
:105050001B4B1BB94FF0FF30BDE8F8834FF4C8700D
:10506000FFF7DAFA0028F5D0D4F8481101600025DE
:105070004560C4F84801C0F88851C0F88C514468B4
:105080009EB100EB84050122C5F88890D0F8881104
:10509000A2401143022EC0F88811C5F8088104D13E
:1050A000D0F88C311A43C0F88C21631C0234436061
:1050B00040F824700020BDE8F88300BF8C58000041
:1050C0001946000038B5064C002305460846236003
:1050D000FDF754FC431C02D1236803B12B6038BD9B
:1050E0003C0C002070B505460C4609B9002070BD87
:1050F00018B1836B0BB9FEF711FEB4F90C30002B1D
:10510000F4D028462146FEF7BFFDE36A064633B1D8
:105110002846E16998470028B8BF4FF0FF36A389B9
:105120001B0603D528462169FEF792FF216B41B18A
:1051300004F14003994202D02846FEF789FF00237C
:105140002363616C21B12846FEF782FF002363646C
:10515000FEF796FE0023A381FEF793FE304670BD56
:10516000024B01461868FFF7BDBF00BF400000209A
:1051700038B5074C00230546084611462360FDF765
:1051800001FC431C02D1236803B12B6038BD00BF72
:105190003C0C002038B5064C002305460846236029
:1051A000FDF7F6FB431C02D1236803B12B6038BD29
:1051B0003C0C002038B5074C05460020206008460E
:1051C00011461A46FDF7E6FB431C02D1236803B1E2
:1051D0002B6038BD3C0C002038B5074C054600203C
:1051E0002060084611461A46FBF730FE431C02D1E8
:1051F000236803B12B6038BD3C0C00204BB942B989
:10520000002908BF002802D04FF0FF31084600F007
:105210003BB882B0EC462DE9005000F01DF8DDF8F7
:1052200004E002B00CBC70472DE97043069E1446A2
:105230001D468046894600F029F804FB01F300FB77
:105240000533A4FB00451D44B8EB040469EB0505D8
:10525000C6E90045BDE870832DE97043069E1446FB
:10526000804689461D4600F05DF900FB05F504FB0C
:105270000153A0FB04451D44B8EB040469EB05058C
:10528000C6E90045BDE87083704700BF00292DE9DD
:10529000F00FC0F29F800024002BC0F296801546CC
:1052A00006460F46002B3ED18A4257D9B2FA82F306
:1052B0004BB1C3F1200201FA03F720FA02F29D403C
:1052C000174300FA03F6290CB7FBF1F2330C01FB8C
:1052D000127CA8B243EA0C4700FB02F3BB4209D997
:1052E0007F1902F1FF3C80F00181BB4240F2FE8059
:1052F000023A2F44FF1AB7FBF1F3B6B201FB137168
:1053000046EA014100FB03F0884208D9491903F13C
:10531000FF3780F0ED80884240F2EA80023B43EAAA
:105320000242002303E08B420AD900231A461046AA
:10533000194614B1404261EB4101BDE8F00F7047DE
:10534000B3FA83F8B8F1000F40F084808B4202D3A7
:10535000824200F2DE8000230122E8E712B9012335
:10536000B3FBF2F5B5FA85F2002A39D17F1B280C80
:105370001FFA85FC0123B7FBF0F1320C00FB11771B
:1053800042EA07470CFB01F2BA4207D97F1901F143
:10539000FF3802D2BA4200F2C1804146BF1AB7FBC1
:1053A000F0F2B6B200FB127046EA00400CFB02FCC1
:1053B000844507D9401902F1FF3702D2844500F233
:1053C000AB803A4642EA0142B1E7E443524263EB22
:1053D000430364E7404261EB41014FF0FF345BE778
:1053E0009540C2F1200327FA03F1280C26FA03F3B3
:1053F0009740B1FBF0F81F433B0C00FB18111FFA5C
:1054000085FC43EA01410CFB08F38B4206FA02F6E5
:1054100008D9491908F1FF3279D28B4277D9A8F11E
:1054200002082944C91AB1FBF0F3BFB200FB131103
:1054300047EA01470CFB03F2BA4207D97F1903F18F
:10544000FF3160D2BA425ED9023B2F44BF1A43EA11
:10545000084390E7C8F1200203FA08FC25FA02F39A
:1054600043EA0C0C4FEA1C4921FA02F301FA08F74F
:1054700020FA02F2B3FBF9F1174309FB11333A0C9E
:105480001FFA8CFB42EA03430BFB01FA9A4505FA2B
:1054900008F008D913EB0C0301F1FF3235D29A451D
:1054A00033D902396344CAEB0303B3FBF9F209FBB6
:1054B0001233BFB247EA03470BFB02F9B94508D9DB
:1054C00017EB0C0702F1FF331BD2B94519D9023A89
:1054D000674442EA0145A5FB0001C9EB07078F427B
:1054E0004FF000030AD305D02A4620E7624601E7C1
:1054F0003B4614E706FA08F68642F5D26A1E0023F8
:1055000015E71A46E5E70B46A0E71146CBE79046BC
:1055100088E7434642460AE7023A53E702392F44F6
:105520003CE700BF2DE9F00F144605460E46002B60
:1055300043D18A4253D9B2FA82F757B1C7F1200654
:1055400020FA06F601FA07F302FA07F41E4300FAFE
:1055500007F5210CB6FBF1F22B0C01FB1267A0B290
:1055600043EA074600FB02F3B34209D9361902F1B8
:10557000FF3780F0F680B34240F2F380023A2644CF
:10558000F61AB6FBF1F3ADB201FB136145EA014136
:1055900000FB03F0884208D9091903F1FF3680F0B7
:1055A000E280884240F2DF80023B43EA024200236D
:1055B00010461946BDE8F00F70478B424AD8B3FA3F
:1055C00083F6002E4DD18B4202D3824200F2D68068
:1055D0000023012210461946BDE8F00F704712B9AA
:1055E0000124B4FBF2F4B4FA84F2002A7CD1091B42
:1055F000260CA7B20123B1FBF6F02A0C06FB101112
:1056000042EA014107FB00F28A4207D9091900F179
:10561000FF3C02D28A4200F2C3806046891AB1FB85
:10562000F6F2ADB206FB121145EA014507FB02F79F
:10563000AF4208D92C1902F1FF3180F09680A742C1
:1056400040F29380023A42EA004210461946BDE811
:10565000F00F704700231A4610461946BDE8F00FB8
:105660007047C6F1200522FA05F4B3401C434FEA07
:10567000144821FA05F301FA06F720FA05F5B3FB01
:10568000F8FC2F4308FB1C333D0C1FFA84FA45EA53
:1056900003430AFB0CF9994502FA06FB04D91B19CE
:1056A0000CF1FF326DD39446C9EB0303B3FBF8F55D
:1056B00008FB1533BFB247EA03470AFB05F8B845B4
:1056C00004D93F1905F1FF3361D31D4645EA0C4C5F
:1056D000ACFB0B23C8EB07079F424FF0000549D3F3
:1056E00045D062462B4663E79440C2F1200321FA7D
:1056F00003FC260C20FA03F301FA02F5BCFBF6F8D2
:1057000043EA05010B0C06FB18CCA7B243EA0C4C8C
:1057100007FB08F3634500FA02F509D91CEB040CFA
:1057200008F1FF323AD2634538D9A8F10208A444FF
:10573000C3EB0C0CBCFBF6F389B206FB13CC41EABD
:105740000C4107FB03F28A4207D9091903F1FF3024
:1057500022D28A4220D9023B2144891A43EA0843D3
:1057600049E73A460CE733461FE70A466BE7B04085
:105770009042B6D20CF1FF32002319E7334632468D
:1057800016E799458FD9ACF1020C23448CE7B84554
:105790009BD9023D274499E70346DEE79046C7E7D9
:1057A000023821443AE700BF5365747570204952AE
:1057B000512063616C6C6261636B5F00206661699C
:1057C0006C757265210D0A0052413A2000000000FC
:1057D0000D0A000052423A200000000052433A20D5
:1057E000000000005443302C204368616E6E656CED
:1057F00020302073657475703A0000005443302CDB
:10580000204368616E6E656C20312073657475701D
:105810003A0000005443302C204368616E6E656C82
:1058200020322073657475703A0000005443312CA7
:10583000204368616E6E656C2030207365747570EE
:105840003A0000005443312C204368616E6E656C51
:1058500020312073657475703A0000005443312C78
:10586000204368616E6E656C2032207365747570BC
:105870003A0000002D382D0D000000002D392D0DAF
:10588000000000002C0000000D0000004800002077
:1058900043000A002020202020202020202020203B
:1058A0002020202030303030303030303030303038
:1058B0003030303030313233343536373839414298
:1058C0004344454600303132333435363738396158
:1058D000626364656600504F534958002E00000013
:1058E000F8B500BFF8BC08BC9E467047513B0000AD
:1058F000F9010000F8B500BFF8BC08BC9E4670472F
:04590000D1010000D1
:0859040088F9FF7F010000009B
:10590C00074A084B9A61C1611946074A48691368EE
:10591C0003F4803310F0010001D1002BF6D0704756
:10592C001C0000AA00000F4010E000E0BFF35F8FE6
:10593C000138FBD1704700BF010000008926000030
:10594C00480000200000000000000000340300208C
:10595C009C03002004040020000000000000000054
:10596C00000000000000000000000000000000002B
:10597C000000000000000000000000009058000033
:10598C00000000000000000000000000000000000B
:10599C0000000000000000000000000000000000FB
:1059AC0000000000000000000000000000000000EB
:1059BC0000000000000000000000000000000000DB
:1059CC0000000000000000000000000000000000CB
:1059DC0000000000000000000000000000000000BB
:1059EC0000000000000000000000000000000000AB
:1059FC0001000000000000000E33CDAB34126DE648
:105A0C00ECDE05000B0000000000000000000000B0
:105A1C00000000000000000000000000000000007A
:105A2C00000000000000000000000000000000006A
:105A3C00000000000000000000000000000000005A
:105A4C00000000000000000000000000000000004A
:105D7C0041534349490000000000000000000000AE
:105D8C000000000000000000000000000000000007
:105D9C00010000004153434949000000000000008D
:105DAC0000000000000000000000000000000000E7
:105DBC0000000000DC5800009358000093580000CD
:105DCC00935800009358000093580000935800001B
:105DDC00935800009358000093580000FFFFFFFFFA
:105DEC00FFFFFFFFFFFFFFFFFFFF000000000000B1
